{
  "transactions": [
    {
      "hash": "0x23ae55cd9e5943623d0bb9ef5ec8d07a1b34a065fef7a6953e8277e22d8f86bf",
      "transactionType": "CALL",
      "contractName": "LinkToken",
      "contractAddress": "0x779877a7b0d9e8603169ddbd7836e478b4624789",
      "function": "transferAndCall(address,uint256,bytes)",
      "arguments": [
        "0x9DdfaCa8183c41ad55329BdeeD9F6A8d53168B1B",
        "3000000000000000000",
        "0xa05c86ce03f8ebae62afaf1a22f255696c3f258209dbfae50112b7d7b940ecb6"
      ],
      "transaction": {
        "from": "0xa17551985a9d16c7ffac10f0d199833a78c33e58",
        "to": "0x779877a7b0d9e8603169ddbd7836e478b4624789",
        "gas": "0x14cbb",
        "value": "0x0",
        "input": "0x4000aea00000000000000000000000009ddfaca8183c41ad55329bdeed9f6a8d53168b1b00000000000000000000000000000000000000000000000029a2241af62c000000000000000000000000000000000000000000000000000000000000000000600000000000000000000000000000000000000000000000000000000000000020a05c86ce03f8ebae62afaf1a22f255696c3f258209dbfae50112b7d7b940ecb6",
        "nonce": "0x14",
        "chainId": "0xaa36a7"
      },
      "additionalContracts": [],
      "isFixedGasLimit": false
    }
  ],
  "receipts": [
    {
      "status": "0x1",
      "cumulativeGasUsed": "0xfb7b78",
      "logs": [
        {
          "address": "0x779877a7b0d9e8603169ddbd7836e478b4624789",
          "topics": [
            "0xddf252ad1be2c89b69c2b068fc378daa952ba7f163c4a11628f55a4df523b3ef",
            "0x000000000000000000000000a17551985a9d16c7ffac10f0d199833a78c33e58",
            "0x0000000000000000000000009ddfaca8183c41ad55329bdeed9f6a8d53168b1b"
          ],
          "data": "0x00000000000000000000000000000000000000000000000029a2241af62c0000",
          "blockHash": "0x9bb394137ba0fa9627ff73f75562547915a8871fef7c2a57f2d1a753b63d7414",
          "blockNumber": "0x83ce4a",
          "blockTimestamp": "0x685e28a4",
          "transactionHash": "0x23ae55cd9e5943623d0bb9ef5ec8d07a1b34a065fef7a6953e8277e22d8f86bf",
          "transactionIndex": "0xac",
          "logIndex": "0x104",
          "removed": false
        },
        {
          "address": "0x779877a7b0d9e8603169ddbd7836e478b4624789",
          "topics": [
            "0xe19260aff97b920c7df27010903aeb9c8d2be5d310a2c67824cf3f15396e4c16",
            "0x000000000000000000000000a17551985a9d16c7ffac10f0d199833a78c33e58",
            "0x0000000000000000000000009ddfaca8183c41ad55329bdeed9f6a8d53168b1b"
          ],
          "data": "0x00000000000000000000000000000000000000000000000029a2241af62c000000000000000000000000000000000000000000000000000000000000000000400000000000000000000000000000000000000000000000000000000000000020a05c86ce03f8ebae62afaf1a22f255696c3f258209dbfae50112b7d7b940ecb6",
          "blockHash": "0x9bb394137ba0fa9627ff73f75562547915a8871fef7c2a57f2d1a753b63d7414",
          "blockNumber": "0x83ce4a",
          "blockTimestamp": "0x685e28a4",
          "transactionHash": "0x23ae55cd9e5943623d0bb9ef5ec8d07a1b34a065fef7a6953e8277e22d8f86bf",
          "transactionIndex": "0xac",
          "logIndex": "0x105",
          "removed": false
        },
        {
          "address": "0x9ddfaca8183c41ad55329bdeed9f6a8d53168b1b",
          "topics": [
            "0x1ced9348ff549fceab2ac57cd3a9de38edaaab274b725ee82c23e8fc8c4eec7a",
            "0xa05c86ce03f8ebae62afaf1a22f255696c3f258209dbfae50112b7d7b940ecb6"
          ],
          "data": "0x0000000000000000000000000000000000000000000000004563918244f400000000000000000000000000000000000000000000000000006f05b59d3b200000",
          "blockHash": "0x9bb394137ba0fa9627ff73f75562547915a8871fef7c2a57f2d1a753b63d7414",
          "blockNumber": "0x83ce4a",
          "blockTimestamp": "0x685e28a4",
          "transactionHash": "0x23ae55cd9e5943623d0bb9ef5ec8d07a1b34a065fef7a6953e8277e22d8f86bf",
          "transactionIndex": "0xac",
          "logIndex": "0x106",
          "removed": false
        }
      ],
      "logsBloom": "0x00000004000000000000000000000000000000000020000000000000020000000000000000000000000000000000000000000000000004000000000000000000000000000000000000000008000000000000000000000000000020000020000008000000000000000000000000000000000000000000000000000010000040008000000000000000000000010000800000000020000000000000000000000000000000000000200000000000010000000000000000000000000004002000000000000002000000000000000000000000010000000000000100000000000000000010000000000000800000000000000040000000000000000000000000000000",
      "type": "0x2",
      "transactionHash": "0x23ae55cd9e5943623d0bb9ef5ec8d07a1b34a065fef7a6953e8277e22d8f86bf",
      "transactionIndex": "0xac",
      "blockHash": "0x9bb394137ba0fa9627ff73f75562547915a8871fef7c2a57f2d1a753b63d7414",
      "blockNumber": "0x83ce4a",
      "gasUsed": "0xf0e5",
      "effectiveGasPrice": "0xf4286",
      "from": "0xa17551985a9d16c7ffac10f0d199833a78c33e58",
      "to": "0x779877a7b0d9e8603169ddbd7836e478b4624789",
      "contractAddress": null
    }
  ],
  "libraries": [],
  "pending": [],
  "returns": {},
  "timestamp": 1751001253,
  "chain": 11155111,
  "commit": "356d800"
}